:020000041000EA
:1000000000B5324B212058609868022188439860DF
:10001000D860186158612E4B002199600221596106
:100020000121F02299502B49196001219960352056
:1000300000F044F80222904214D00621196600F024
:1000400034F8196E01211966002018661A6600F04E
:100050002CF8196E196E196E052000F02FF8012189
:100060000842F9D1002199601B49196000215960AB
:100070001A491B48016001219960EB211966A021F2
:10008000196600F012F800219960164914480160C1
:100090000121996001BC002800D000471248134993
:1000A000086003C880F30888084703B5996A0420EC
:1000B0000142FBD001200142F8D103BD02B5186610
:1000C0001866FFF7F2FF186E186E02BD00000240BE
:1000D000000000180000070000035F00212200005C
:1000E000F4000018222000A00001001008ED00E03C
:1000F00000000000000000000000000074B24E7A12
:1001000000200420F7010010C3010010C5010010F9
:10011000C1010010C1010010C1010010C101001097
:10012000C1010010C1010010C1010010C701001081
:10013000C1010010C1010010C9010010CB01001065
:10014000CD010010CD010010CD010010CD01001037
:10015000CD010010CD010010CD010010CD01001027
:10016000CD010010CD010010CD010010CD01001017
:10017000CD010010CD010010CD010010CD01001007
:10018000CD010010CD010010CD010010CD010010F7
:10019000CD010010CD010010CD010010CD010010E7
:1001A000CD010010CD010010CD010010CD010010D7
:1001B000CD010010CD010010CD010010CD010010C7
:1001C00000BE00BE00BE00BE00BE00BEEFF3058054
:1001D000103800BEF2EB8871086709102C6709100F
:1001E0003402001090A31AE700201F49086006C8D7
:1001F00081F3088810471D48006800282FD10DA4FE
:100200000ECC002902D000F012F8F9E71849194A7B
:10021000002000E001C19142FCD1174988471749ED
:1002200088471749884700BEFDE701C901C29A42C5
:10023000FBD370472C670910C00000204815002030
:10024000B47B09100000042000000420B47B0910D6
:10025000001004200010042000000000704709482E
:1002600090F0E0F80047000008ED00E0000000D04A
:1002700048150020C4250020ADF108109906001093
:1002800069F108105756000006005250ABB3605396
:10029000EC5F091006005250861C0302FC5F091037
:1002A000060052505422A29D0C60091005005250C5
:1002B000DE65F468B47B0910F8B5C04610B5064C8D
:1002C0002378002B07D1054B002B02D0044800E017
:1002D00000BF0123237010BD501600200000000055
:1002E000A04C0910044B10B5002B03D0034904485F
:1002F00000E000BF10BDC046000000005416002002
:10030000A04C091010B50400074B02221A600749DF
:1003100001208CF0E3FF012101208CF0B5FF044B9C
:10032000986A0019586110BD386005403503001007
:100330000040054010B5144B02221A6013490B8887
:10034000134A1268D25C1202D0200006046962408F
:10035000FF2424022240C26101339BB20B800D4A6C
:10036000128893429B415B420B4A1370002B03D0CF
:100370005B20FFF7C7FF10BDD0231B061968074895
:1003800091F01EFAF7E7C04634700540B225002010
:100390005C230020B0250020C0250020A04C0910BF
:1003A000F8B5DE4657464E464546E0B504000D1CFE
:1003B0004678300090F039FF8146A77823789A4636
:1003C000F81A90F037FFFC21890590F0F8FE80467E
:1003D000300090F02FFF254990F0F1FE8346504603
:1003E00090F028FF594690F0CAFE8346780090F0BE
:1003F00021FF594690F0C8FE8346E478200090F033
:1004000019FFFC21890590F0DAFE011C584690F096
:10041000B6FE83465346E01A90F00CFFFC21890596
:1004200090F0CDFE041CF01B90F004FFFF21890525
:1004300090F0C5FE011C201C90F0A6FE291C90F037
:10044000BEFE594690F0A0FE291C90F0B8FE414631
:1004500090F09AFE291C90F0B2FE494690F094FE6E
:10046000F0BCBB46B246A946A046F8BD00002040FD
:10047000F0B5D6464F464646C0B50600894690467A
:100480001F0008AB1B889A46002519E0281C90F035
:10049000F3FE040090F0CEFE011C281C90F06FFECD
:1004A000011CE01901384844FFF77AFF741C90F0F2
:1004B00015FF30704146281C90F066FE051C260092
:1004C000504690F0B7FE291C90F0AAFE0028DDD11E
:1004D000E0BCBA46B146A846F0BD0000F0B583B016
:1004E000D0231B0619682D4891F06AF92C4891F029
:1004F00037F92C4B832252009A5C0821FF31595C5A
:100500000902521828490A80852252009A5C0C215F
:10051000FF315B5C1B02D318244A1380012090F04A
:10052000ABFF234B1860302433E0224B01221A70BA
:10053000214B00221A80A300204A9D581B4E308870
:1005400090F078FE291C90F024FE90F0C7FE81B256
:100550001B4B1980164F386890F0ACFF3860124B77
:100560001B88328800922A1C1649FFF781FF281C3D
:1005700090F0BCFE02000B000094134891F020F9AB
:100580005B20FFF7BFFE0B4B1B78002BFBD1013428
:10059000E4B2482CC9D903B0F0BDC046C44C091020
:1005A000DC4C091038080010B4250020AE250020CE
:1005B0005C230020C0250020B2250020DC4E09105D
:1005C000B0250020DD370010EC4C091010B5FF24D9
:1005D000240220008CF045FDD0231B061A6A9443A8
:1005E000DC62022108208CF021FD022109208CF020
:1005F0001DFD02210A208CF019FD02210B208CF038
:1006000015FD02210C208CF011FD02210D208CF033
:100610000DFD02210E208CF009FD02210F208CF02F
:1006200005FD10BDF8B5060049000131164D6C5CA2
:100630004B1CEB5C1B02E418A4B22200134891F09F
:10064000BFF82B7801335B00E3189BB25C1CA4B2AB
:10065000ED5C220029000E4891F0B2F8002310E072
:100660000C4A2A2171438D54601C80B29F00791876
:10067000521894800449095C91701334A4B2013378
:10068000DBB2AB42ECD3F8BD380800100C4D0910BA
:10069000284D0910F81B002010B5C0B0FFF796FFD9
:1006A00091F09AF800F09AF8FA20C0008DF054FE0C
:1006B0001F4891F055F81F4891F052F880225200DF
:1006C0001D49684690F024FF1C4893F001FC6E2100
:1006D0000020FFF7A7FF01220021194891F070F8D0
:1006E000184B1978184891F06BF800240AE0A20022
:1006F000144B9B189A789B882100144891F060F85D
:100700000134E4B20F4B1B78A342F0D8104891F0AB
:1007100027F8FA20C0008DF01FFEFA2040008DF06F
:100720001BFED0231B0619680A4891F049F8F4E72C
:10073000444D0910504D0910D84D0910DD0400102A
:10074000604D0910F81B0020804D0910904D0910D4
:10075000B84D0910C04D091010B582B0194B9B69F6
:1007600020210A001A40194229D1174B1B7817493A
:1007700009788B4209D0164909685C1C124804703C
:10078000CB5C694607310B7017E00E4B50229A6321
:100790005B6B183A1A400F4980235B010B431A60C8
:1007A0000D4B00221A700AE0064B9B699B06FBD496
:1007B0000878044B186001320131002AF4D002B0ED
:1007C00010BDC04600400340BD250020BE250020CE
:1007D0004C23002034400340C125002010B5124CAA
:1007E000124920008EF042FA022100208CF006FC13
:1007F000022101208CF002FC002120008EF01AFA68
:100800000B4914208CF06AFD012114208CF03CFD72
:100810005023A363636B38221A40064980235B018F
:100820000B431A6010BDC04600400340127A00001E
:100830005907001034400340800000C40088014C78
:1008400002B1021603A10306046B04AA04E9043BE7
:1008500005A005DF051E065D069C06DB061A075986
:1008600007BE0723087508ED085209DD09680AF379
:100870000A6B0BE30BA70C580DAA0D220E870EFF77
:100880000E770FC90F2E108010E51096114712E554
:10089000128313C213EE134014041543158215C1BD
:1008A0001500163F169116E316FC16C0178418356E
:1008B00019C019251A771AEF1A411BCC1B6A1C1B89
:1008C0001D931D0B1E961EFB1E731FB21F3D20B5F0
:1008D00020F42033219821FD213C22B422192358F1
:1008E000238423D62302244124A624F82437259CDC
:1008F00025DB254026A526E42623276227DA2706BE
:1009000028452871288A28C92808295A29D2294A1D
:100910002AAF2ADB2A532BF12B562CF42C0D2D3920
:100920002D522D6B2D842D9D2DB62DCF2D0E2E27C6
:100930002E402E592E722E8B2E000A0026240000E7
:100940000000B41A6A17B31A780CA0050000272B10
:1009500029B41A0000981927159719780CA00500DA
:10096000002C32304C340000D0153012CF15780CEA
:10097000A0050000333B381C4A000022133A102126
:1009800013780CA00500003C43403E5D00008A1433
:10099000EC118914780CA0050000444A49C8710084
:1009A00000D20E190CD10E780CA00500004B514E50
:1009B0009A800000FA0E970CF90E780CA005000042
:1009C000525854948F0000580EAB0B570E780CA061
:1009D00005000059615CEC9D0000940C870A930CA3
:1009E000780CA0050000627F6780AA0000740926C9
:1009F000097309780CA0050000FFFFFFFF010A0042
:100A0000292400000000B41A6A17B31A780CA00554
:100A100000002A2E29B41A00009819271597197872
:100A20000CA00500002F35304C340000D0153012DA
:100A3000CF15780CA0050000363E381C4A00002275
:100A4000133A102113780CA00500003F46403E5D8C
:100A500000008A14EC118914780CA0050000474DA1
:100A600049C8710000D20E190CD10E780CA00500F7
:100A7000004E544E9A800000FA0E970CF90E780C36
:100A8000A0050000555B54948F0000580EAB0B5727
:100A90000E780CA00500005C645CEC9D0000940CDA
:100AA000870A930C780CA0050000657F6780AA0078
:100AB00000740926097309780CA0050000FFFFFFE8
:100AC000FF020A002D2400000000B41A6A17B31AAE
:100AD000240AA00500002E3229B41A000098192714
:100AE000159719240AA00500003339304C34000052
:100AF000D0153012CF15240AA00500003A42381C48
:100B00004A000022133A102113240AA005000043D2
:100B10004A403E5D00008A14EC118914240AA005A5
:100B200000004B5149C8710000D20E190CD10E249F
:100B30000AA005000052584E9A800000FA0E970C49
:100B4000F90E240AA0050000595F54948F00005844
:100B50000EAB0B570E240AA005000060685CEC9DEC
:100B60000000940C870A930C240AA0050000697FFA
:100B70006780AA0000740926097309240AA00500E9
:100B800000FFFFFFFF030500312AF4B30000B60B9E
:100B9000520AB50B820AA005000032433EAABF00EC
:100BA00000B6054505B505820AA0050000444E477C
:100BB00060C50000BC058F05BB05820AA0050000CA
:100BC0004F5A541CCB000018050C051705820AA0CB
:100BD0000500005B7F6034D00000EA038503E90371
:100BE000820AA0050000FFFFFFFF0405002E311E52
:100BF000D40000E0018F01DF01E60BA00500002F0B
:100C00004238FED50000A4016D01A301E60BA0054A
:100C10000000435043A2D70000D000B300CF00E64D
:100C20000BA005000051655072D80000F800DD00EF
:100C3000F700E60BA0050000667F616AD900003A64
:100C40000034003900E60BA0050000FFFFFFFF05A0
:100C500007003C30A4D90000EA039503E903DE074E
:100C60002C0000003D44388EDD000090025A028FB7
:100C700002DE072C000000454C401EE00000E201AF
:100C8000C001E101DE072C0000004D544800E200E5
:100C9000001001FA000F01DE072C000000555C5027
:100CA00010E30000CA00AF00C900DE072C000000FE
:100CB0005D6458DAE30000B0009600AF00DE072C58
:100CC000000000657F608AE400008E005E008D00F9
:100CD000DE072C000000FFFFFFFF0605003630187E
:100CE000E50000100DC10A0F0DC30AA00500003772
:100CF000423C28F200001C0ACA081B0AC30AA005CD
:100D0000000043504844FC0000D4076D06D307C3DD
:100D10000AA00500005164571804010028072F0697
:100D20002707C30AA0050000657F571804010028A3
:100D3000072F062707C30AA0050000FFFFFFFF07D4
:100D400005002E30400B01003E01E9003D01DE07A9
:100D5000330000002F413C7E0C0100BC009100BB21
:100D600000DE0733000000424E483A0D01007C00CF
:100D700066007B00DE07330000004F5F54B60D01B4
:100D800000300025002F00DE0733000000607F6781
:100D9000E60D010072006A007100DE0733000000FA
:100DA000FFFFFFFF080300624D580E010010019184
:100DB000000F018308A0050000636665680F01004D
:100DC0004800280047008308A0050000677F5AB04C
:100DD0000F01009E0095009D008308A0050000FF04
:100DE000FFFFFF09030057554E100100DE00A2006F
:100DF000DD001308A0050000585B5B2C1101009E6C
:100E00000073009D001308A00500005C7F66CA11F6
:100E100001000000000000001308A0050000FFFF13
:100E2000FFFF0A04003952CA1101008E0123018D0F
:100E300001EA06A00500003A5852CA1101008E01CD
:100E400023018D01EA06A0050000596665680F01BF
:100E500000480028004700EA06A0050000677F5A06
:100E6000B00F01009E0095009D00EA06A00500005D
:100E7000FFFFFFFF0B0500393458130100CA0C7B3C
:100E80000BC90C350CA00500003A46402220010099
:100E9000AA0B230BA90B350CA005000047524CCC24
:100EA0002B0100E8067206E706350CA0050000538A
:100EB0005D58B4320100A8046C04A704350CA005E9
:100EC00000005E7F645C370100DC04BE04DB043597
:100ED0000CA0050000FFFFFFFF0C03003036383C7C
:100EE0000100BC039202BB03D706A00500003151EC
:100EF0003EF43F01002203FC022103D706A00500B7
:100F000000527F5AB00F01009E0095009D00D70649
:100F1000A0050000FFFFFFFF0D0300584816430126
:100F2000001E02DF011D02C005A005000059655D1D
:100F3000344501002A0110012901C005A005000067
:100F4000667F5AB00F01009E0095009D00C005A06D
:100F5000050000FFFFFFFF0E030059545E4601002D
:100F6000480293004702C909A00500005A60545E78
:100F7000460100480293004702C909A0050000612C
:100F80007F545E460100480293004702C909A0054C
:100F90000000FFFFFFFF0F0300374AA6480100FAD9
:100FA000022C02F9027908A005000038574AA64829
:100FB0000100FA022C02F9027908A0050000587F0E
:100FC00067E60D010072006A0071007908A0050053
:100FD00000FFFFFFFF1003004F49A04B010000007E
:100FE0000000000050FE02000000505C55A04B01C4
:100FF000008A007500890050FE020000005D7F61DC
:101000002A4C010048003D00470050FE020000004D
:10101000FFFFFFFF1103004035724C0100B00731A4
:1010200007AF0720D10000000041524422540100C4
:1010300076033F03750320D100000000537F5698CC
:10104000570100C4029E02C30220D100000000FF2D
:10105000FFFFFF12030037475C5A0100D406690204
:10106000D30616FA02000000384553306101002C07
:1010700007A4022B0716FA02000000467F5F5C6897
:101080000100BA067502B90616FA02000000FFFF59
:10109000FFFF130500342E166F010026046B032595
:1010A0000487FB00000000353C383C73010002035C
:1010B000C801010387FB000000003D49423E760164
:1010C000009E0128019D0187FB000000004A564E4A
:1010D000DC7701007C025D027B0287FB00000000E0
:1010E000577F5A587A01008C017D018B0187FB00E4
:1010F000000000FFFFFFFF1405002E35E47B010018
:10110000940014009300A500010000002F4435E472
:101110007B0100940014009300A50001000000452D
:101120005348787C01001C0006001B00A50001004C
:1011300000005D7F58947C0100320018003100A54A
:101140000001000000545C48787C01001C0006008F
:101150001B00A50001000000FFFFFFFF1504003089
:1011600044C67C010058075F055707390702000095
:1011700000315444C67C010058075F055707390702
:1011800002000000555F601E84010038040D043722
:1011900004390702000000607F5F56880100D0001C
:1011A000C900CF00390702000000FFFFFFFF16064D
:1011B0000044382689010036000000350008080385
:1011C000000000454C405C89010022000000210025
:1011D0000808030000004D54487E890100160001F4
:1011E000001500080803000000555C5094890100B8
:1011F0001C0001001B000808030000005D6558B0DA
:101200008901001A000000190008080300000066A8
:101210007F60CA8901000C0000000B000808030071
:101220000000FFFFFFFF1705002C40D68901008C4E
:101230000169018B01E304020000002D4740D689BB
:1012400001008C0169018B01E30402000000485297
:101250004A628B01002601FF002501E30402000021
:1012600000607F58947C0100320018003100E304D4
:1012700002000000535F48787C01001C0006001B40
:1012800000E30402000000FFFFFFFF1807003430F6
:10129000888C0100BC08C206BB08540BA0050000E6
:1012A000354239449501002408F6062308540BA062
:1012B000050000434C46689D0100860681058506B1
:1012C000540BA00500004D594FEEA30100AA057173
:1012D00005A905540BA00500005A5B5898A9010008
:1012E0008A035F038903540BA00500005C6361223D
:1012F000AD01002002F7011F02540BA0050000649D
:101300007F6542AF0100DE049903DD04540BA005A4
:101310000000FFFFFFFF1907002C2920B40100483F
:10132000124F104712D40AA00500002D343168C6B0
:101330000100880B5A09870BD40AA0050000353C30
:1013400039F0D10100D0093909CF09D40AA005002C
:10135000003D4541C0DB01000A0A8B09090AD40A95
:10136000A005000046514ACAE5010064070507636D
:1013700007D40AA0050000597F542EED0100C405D2
:101380006405C305D40AA00500005258542EED018F
:1013900000C4056405C305D40AA0050000FFFFFFD3
:1013A000FF1A07003632F2F20100AA0CBA09A90CA2
:1013B0002C0AA0050000373F3B9CFF01007C0CD2AB
:1013C000087B0C2C0AA0050000404744180C0200C2
:1013D000AA0A1B09A90A2C0AA0050000484F4AC204
:1013E000160200A2089A07A1082C0AA005000050C6
:1013F0005854641F0200BE090208BD092C0AA0054A
:10140000000059615D22290200F406A105F3062CB3
:101410000AA0050000627F6542AF0100DE04990367
:10142000DD042C0AA0050000FFFFFFFF1B060036AD
:101430003016300200D0092609CF09240AA0050081
:1014400000373E3CE63902005E07B4065D07240A19
:10145000A00500003F46434441020010069E050FD0
:1014600006240AA00500004750485447020098048B
:10147000EE039704240AA0050000516353EC4B02CD
:101480000076046A047504240AA0050000647F54F1
:101490002EED0100C4056405C305240AA005000063
:1014A000FFFFFFFF1C0600452B62500200C0024FE9
:1014B00002BF02A508A005000046484022530200D2
:1014C0001A02F7011902A508A00500004956513C6F
:1014D0005502000001F200FF00A508A0050000571A
:1014E0005B5898A901008A035F038903A508A0053A
:1014F00000005C636122AD01002002F7011F02A51C
:1015000008A0050000647F6542AF0100DE04990376
:10151000DD04A508A0050000FFFFFFFF1D0A002C49
:10152000203C5602004C0977084B09B90B03000018
:10153000002D3125885F0200A00700079F07B90B27
:1015400003000000323930286702001605C0041578
:1015500005B90B030000003A3F3C3E6C02008408D2
:101560002F088308B90B0300000040463BC27402F9
:10157000008A025D028902B90B0300000047493D61
:101580004C7702009A0271029902B90B0300000025
:101590004A4D41E6790200D201B101D101B90B03F4
:1015A0000000004E594DB87B02005201410151012B
:1015B000B90B030000005A60540A7D0200C800BD48
:1015C00000C700B90B03000000617F5ED27D0200FE
:1015D000B0009100AF00B90B03000000FFFFFFFF58
:1015E0001E09003024827E02002207790621077836
:1015F0000C0300000031362AA48502006806F105BC
:101600006706780C03000000373B2F0C8C02006E3D
:101610000414046D04780C030000003C40347A90FC
:101620000200860343038503780C03000000414752
:101630003B00940200D601A901D501780C030000FB
:1016400000484D41D6950200320212023102780C58
:10165000030000004E5C50089802006401490163D9
:1016600001780C030000005D65596C990200D400FC
:10167000C400D300780C03000000667F61409A022A
:10168000000001FA00FF00780C03000000FFFFFFDC
:10169000FF1F04004043409B0200AC018801AB01E6
:1016A000B00BA0050000415052EC9C0200620158B2
:1016B000016101B00BA0050000515F52EC9C0200DB
:1016C000620158016101B00BA0050000607F52EC7F
:1016D0009C0200620158016101B00BA0050000FFEF
:1016E000FFFFFF20060025204E9E02001810420F2B
:1016F00017107F0A1900000026332B66AE0200A8DF
:101700000DC50CA70D7F0A1900000034483C0EBC23
:1017100002005205270551057F0A190000004954AF
:101720003C0EBC02005205270551057F0A19000036
:101730000055565360C102006405790463057F0AB1
:1017400019000000577F60C4C602004204F703413D
:10175000047F0A19000000FFFFFFFF2105002B385E
:1017600006CB020084054E058305ED0A100000003B
:101770002C363B8AD002000005D304FF04ED0A108A
:1017800000000037504C8AD502003602F2013502C3
:10179000ED0A10000000516A4C8AD502003602F2B0
:1017A000013502ED0A100000006B7F63C0D7020014
:1017B0000E0005000D00ED0A10000000FFFFFFFF06
:1017C000220600231ECED70200020E120D010E11BA
:1017D0000A10000000242D28D0E502005A0D4E0CFE
:1017E000590D110A100000002E4E322AF302003A61
:1017F00007A2063907110A100000004F5854641F51
:101800000200BE090208BD09110A1000000059615A
:101810005D22290200F406A105F306110A1000005A
:1018200000627F6542AF0100DE049903DD04110A06
:1018300010000000FFFFFFFF2306002A2464FA02C5
:1018400000D6122D12D512780CA00500002B4230C4
:101850003A0D0300C40A6F0AC30A780CA005000001
:10186000434E3CFE1703000A05DF040905780CA06F
:101870000500004F5854641F0200BE090208BD094C
:10188000780CA005000059615D22290200F406A130
:1018900005F306780CA0050000627F6542AF0100E9
:1018A000DE049903DD04780CA0050000FFFFFFFFB4
:1018B000240400261F081D03007E0EB80C7D0E7840
:1018C0000C1C00000027432B862B0300B80AA2073C
:1018D000B70A780C1C0000004468533E360300B081
:1018E00000A400AF00780C1C000000697F542EEDAE
:1018F0000100C4056405C305780C1C000000FFFF4F
:10190000FFFF2505003234EE3603008203750281A5
:1019100003910A1C000000333C34EE3603008203BE
:1019200075028103910A1C0000003D452B862B03A4
:1019300000B80AA207B70A910A1C000000466853C3
:101940003E360300B000A400AF00910A1C00000066
:10195000697F542EED0100C4056405C305910A1C7E
:10196000000000FFFFFFFF2604002D21703A030056
:10197000F8202E20F7202C0A2C0000002E4530687D
:101980005B03001E07C8061D072C0A2C000000463A
:101990005A4886620300DC04C604DB042C0A2C00CF
:1019A00000005B7F6062670300B002A502AF022CFB
:1019B0000A2C000000FFFFFFFF2705002B21126A01
:1019C000030058138E125713840B150000002C428D
:1019D000306A7D0300120667051106840B150000AE
:1019E000004353487C830300DC05C605DB05840BFC
:1019F000150000005460487C830300DC05C605DB4D
:101A000005840B15000000617F542EED0100C40514
:101A10006405C305840B15000000FFFFFFFF2809C4
:101A200000443858890300D4029E02D302F9080208
:101A300000000045463A2C8C03001603E50215030E
:101A4000F90802000000474C40428F0300BA029898
:101A500002B902F908020000004D5044FC91030055
:101A6000A4028902A302F9080200000051584AA00A
:101A700094030040022D023F02F9080200000059C1
:101A80006053E0960300DE01D201DD01F908020097
:101A9000000061695CBE980300CC01B101CB01F983
:101AA00008020000006A6A6A8A9A03000A000300BA
:101AB0000900F908020000006B7F5F949A0300CED2
:101AC00000B700CD00F90802000000FFFFFFFF296A
:101AD00009003C3858890300D4029E02D302E90968
:101AE000020000003D3E3A2C8C03001603E502156F
:101AF00003E909020000003F4440428F0300BA029C
:101B00009802B902E90902000000454844FC91032B
:101B100000A4028902A302E90902000000494E4A1A
:101B2000A094030040022D023F02E90902000000D8
:101B30004F5453E0960300DE01D201DD01E90902B2
:101B400000000055695CBE980300CC01B101CB01D7
:101B5000E909020000006A6A6A8A9A03000A00031F
:101B6000000900E909020000006B7F5F949A0300FE
:101B7000CE00B700CD00E90902000000FFFFFFFF23
:101B80002A0800211C629B03007C0371027B03D4A2
:101B90000802000000222D29DE9E03001602960195
:101BA0001502D408020000002E3735F4A0030028E7
:101BB000022D012702D408020000003841401CA376
:101BC00003008E016C018D01D40802000000425B0D
:101BD0004CAAA40300F400E200F300D408020000C1
:101BE000006A6A6A8A9A03000A0003000900D4089E
:101BF000020000005C695CBE980300CC01B101CB1F
:101C000001D408020000006B7F60CA8901000C004B
:101C100000000B00D40802000000FFFFFFFF2B08AC
:101C200000261D9EA50300B205B704B1058D08026C
:101C300000000027362A50AB03000000000000001F
:101C40008D080200000037483B50AB030000000045
:101C50000000008D08020000004957405C89010027
:101C60002200000021008D0802000000585F487E1D
:101C70008901001600010015008D08020000006BAC
:101C80007F60CA8901000C0000000B008D08020073
:101C90000000606650948901001C0001001B008D4B
:101CA0000802000000676A58B08901001A000000AD
:101CB00019008D0802000000FFFFFFFF2C03003712
:101CC0003950AB030074137D0073136508020000E4
:101CD00000385347C4BE03004E1649004D16650830
:101CE00002000000547F5812D50300BE0E4400BD10
:101CF0000E650802000000FFFFFFFF2D020058479D
:101D0000D0E30300D4040C04D304CA04A0050000EB
:101D1000597F60A4E80300000000000000CA04A08E
:101D2000050000FFFFFFFF2E04003E39A4E803007A
:101D3000800785067F076909A00500003F4C4624FF
:101D4000F00300C006BB05BF066909A00500004DF1
:101D5000565360C102006405790463056909A00552
:101D60000000577F60C4C602004204F703410469C3
:101D700009A0050000FFFFFFFF2F0A00323CE4F638
:101D80000300380D000000003009A00500003337C3
:101D90003CE4F60300380D000000003009A0050007
:101DA00000383C3CE4F60300380D00000000300928
:101DB000A00500003D413CE4F60300380D000000A2
:101DC000003009A005000042463CE4F60300380D4F
:101DD000000000003009A0050000474C3CE4F60379
:101DE00000380D000000003009A00500004D523CF5
:101DF000E4F60300380D000000003009A0050000E3
:101E000053583CE4F60300380D000000003009A0F0
:101E1000050000595F3CE4F60300380D00000000A7
:101E20003009A0050000607F3CE4F60300380D0097
:101E30000000003009A0050000FFFFFFFF30030095
:101E4000373950AB030074137D007313E7080200A9
:101E50000000385347C4BE03004E1649004D16E734
:101E60000802000000547F5812D50300BE0E440043
:101E7000BD0EE70802000000FFFFFFFF310300373F
:101E80003950AB030074137D0073137F0A03000005
:101E900000385347C4BE03004E1649004D167F0A52
:101EA00003000000547F5812D50300BE0E4400BD4D
:101EB0000E7F0A03000000FFFFFFFF3203003530F2
:101EC0001C040400701554006F152E03010000005F
:101ED000364E458C19040088158D0087152E030198
:101EE0000000004F7F56142F0400BA122800B912C8
:101EF0002E0301000000FFFFFFFF33030034301CFE
:101F0000040400701554006F150203020000003530
:101F10004C458C19040088158D00871502030200BA
:101F200000004D7F56142F0400BA122800B9120287
:101F30000302000000FFFFFFFF3403005544CE41C1
:101F40000400381834073718D40802000000565F20
:101F500056142F0400BA122800B912D40802000047
:101F600000607F56142F0400BA122800B912D4085A
:101F700002000000FFFFFFFF3504004446065A043C
:101F8000003605CA013505E7080800000045544F32
:101F90003C5F04005E0691025D06E7080800000051
:101FA00055645A9A6504006406D2026306E708087D
:101FB000000000657F5FFE6B0400BE04B204BD0438
:101FC000E70808000000FFFFFFFF360400374ABCA7
:101FD000700400820A0900810A4D050400000038DF
:101FE000594ABC700400820A0900810A4D050400A8
:101FF00000005A666A3E7B04001A030E0019034D66
:102000000504000000677F60CA8901000C00000021
:102010000B004D0504000000FFFFFFFF370100002B
:1020200044587E0400101E201A0F1E3909A0050016
:1020300000FFFFFFFF380A002B28689C04005004B3
:10204000C9034F047408020000002C3230B8A00409
:1020500000A6055105A505740802000000333937B4
:102060005EA604009E0465049D047408020000003E
:102070003A4135FCAA0400BE027D02BD027408028A
:1020800000000042493DBAAD040086025D028502AF
:102090007408020000004A514540B004000A02D70B
:1020A00001090274080200000052564A4AB20400B4
:1020B0007C0168017B01740802000000575D50C676
:1020C000B304002601180125017408020000005E17
:1020D0006759ECB40400E600DD00E5007408020076
:1020E0000000687F5F949A0300CE00B700CD0074B3
:1020F0000802000000FFFFFFFF390A002B28689C40
:1021000004005004C9034F04520A010000002C329D
:1021100030B8A00400A6055105A505520A0100002B
:10212000003339375EA604009E0465049D04520AFC
:10213000010000003A403ED2B50400E403BD03E3D1
:1021400003520A01000000414844B6B904004A05A0
:102150002E054905520A0100000049514D00BF04F7
:102160000020030F031F03520A01000000525856BB
:1021700020C20400DC01BE01DB01520A01000000A4
:10218000595D5CFCC30400EC00E500EB00520A0161
:102190000000005E6759ECB40400E600DD00E500D5
:1021A000520A01000000687F5F949A0300CE00B7D6
:1021B00000CD00520A01000000FFFFFFFF3A0900B6
:1021C0002727E8C404003A03AD023903740803006A
:1021D000000028373222C804004E0204024D027467
:1021E000080300000038403ED2B50400E403BD03FC
:1021F000E303740803000000414844B6B904004AF0
:10220000052E05490574080300000049514D00BF23
:10221000040020030F031F0374080300000052583A
:102220005620C20400DC01BE01DB0174080300007B
:1022300000595D5CFCC30400EC00E500EB00740891
:10224000030000005E6759ECB40400E600DD00E521
:1022500000740803000000687F5F949A0300CE00BA
:10226000B700CD00740803000000FFFFFFFF3B072D
:1022700000424070CA04002C0809082B08A9050375
:10228000000000434A499CD20400D806AF06D70696
:10229000A905030000004B514F74D9040094065B5C
:1022A000069306A9050300000052575608E00400F3
:1022B0009C0588059B05A90503000000585D50C6D4
:1022C000B30400260118012501A905030000005EE2
:1022D0006759ECB40400E600DD00E500A905030041
:1022E0000000687F5F949A0300CE00B700CD00A97C
:1022F0000503000000FFFFFFFF3C053C433CA4E555
:1023000004004A0B760A490BDB0403000000444F2B
:1023100048EEF00400FA077B07F907DB040300002E
:1023200000506348EEF00400FA077B07F907DB046E
:1023300003000000647F5F949A0300CE00B700CDD5
:1023400000DB0403000000003B3CA4E504004A0B52
:10235000760A490BDB0403000000FFFFFFFF3D048A
:10236000004440E8F80400780B560B770B9A0503FD
:10237000000000455048600405008E0E240E8D0EAE
:102380009A0503000000515A54EE120500FE0F6A30
:102390000FFD0F9A05030000005B7F60EC22050033
:1023A000360A1F0A350A9A0503000000FFFFFFFFE7
:1023B0003E06003430222D0500A00F030B9F0FAC0A
:1023C000070500000035403CC23C0500C20B7A07FF
:1023D000C10BAC0705000000414C4884480500B81B
:1023E0000BD907B70BAC07050000004D56543C5401
:1023F0000500E4076B05E307AC0705000000576123
:102400005F205C0500EE05E705ED05AC0705000063
:1024100000627F56142F0400BA122800B912AC07CC
:1024200005000000FFFFFFFF3F04002F2B0E620599
:1024300000921240119112CD0A060000003043377D
:10244000A07405003E0B940A3D0BCD0A0600000067
:10245000445848DE7F0500E806D206E706CD0A06A6
:10246000000000597F5FFE6B0400BE04B204BD048F
:10247000CD0A06000000FFFFFFFF400700463AC6F6
:10248000860500D003A003CF032E02020000004700
:102490004C40968A05008402610283022E020200EB
:1024A00000004D52461A8D0500700757076F072E22
:1024B000020200000053584C8A9405005E064C0648
:1024C0005D062E0202000000595F53E89A05008065
:1024D000045D047F042E0202000000606659689FBC
:1024E0000500EE00E500ED002E0202000000677F0F
:1024F0005F949A0300CE00B700CD002E02020000C8
:1025000000FFFFFFFF410800352956A005001A050E
:102510009B041905600403000000363B2F70A505DD
:10252000007A021F0279026004030000003C3F337E
:10253000EAA7050074022B02730260040300000086
:102540004045395EAA05005802250257026004037F
:10255000000000464D41B6AC0500760155017501FD
:102560006004030000004E574B2CAE050050023EA5
:10257000024F026004030000005860537CB0050065
:102580006A0153016901600403000000617F5CE699
:10259000B10500B2009700B100600403000000FF25
:1025A000FFFFFF4209002B2298B2050016035702D5
:1025B00015036906020000002C362DAEB50500603B
:1025C00002FB015F02690602000000373C330EB8CF
:1025D0000500F401AC01F3016906020000003D4171
:1025E0003802BA0500A0016A019F016906020000D5
:1025F0000042473EA2BB0500FA01D301F90169067A
:1026000002000000484E459CBD05004E0134014DBE
:10261000016906020000004F564DEABE0500220186
:1026200011012101690602000000575E550CC0052A
:1026300000C000B500BF006906020000005F7F5FB8
:1026400056880100D000C900CF00690602000000D2
:10265000FFFFFFFF4306002826CCC005007E01E8EF
:10266000007D019A05040000002935304AC20500AA
:102670000000000000009A050400000036473B4AB5
:10268000C205000000000000009A05040000004898
:1026900058564AC205006A00600069009A050400A5
:1026A0000000595F6DB4C205000000000000009AF0
:1026B0000504000000607F5F56880100D000C9005B
:1026C000CF009A0504000000FFFFFFFF4406004012
:1026D0003DB4C205006204390461048507020000AC
:1026E0000041484516C70500300315032F03850731
:1026F00002000000494F4D46CA0500260315032578
:10270000038507020000005056556CCD0500C4013A
:102710009B01C30185070200000057665130CF05B9
:1027200000720064007100850702000000677F638B
:10273000A2CF05007200680071008507020000004A
:10274000FFFFFFFF450700393514D00500D801977A
:1027500001D7015107020000003A413DECD10500CC
:10276000C4019B01C301510702000000424B46B067
:10277000D305000000000000005107020000004CDB
:102780005552B0D305007A016D017901510702005D
:102790000000565F53E89A050080045D047F0451F1
:1027A0000702000000606659689F0500EE00E50022
:1027B000ED00510702000000677F5F949A0300CE8E
:1027C00000B700CD00510702000000FFFFFFFF46E9
:1027D0000500322C2AD5050082011701810145052B
:1027E00002000000334445ACD60500800066007F3F
:1027F00000450502000000455645ACD605008000A6
:1028000066007F00450502000000575F6DB4C205F9
:1028100000000000000000450502000000607F5F2E
:1028200056880100D000C900CF0045050200000015
:10283000FFFFFFFF47060038372CD7050070003830
:10284000006F009007030000003946409CD7050048
:10285000460023004500900703000000474E46E273
:10286000D70500300018002F009007030000004F2C
:10287000554B12D8050024001200230090070300D6
:10288000000056635736D805001C0012001B00904C
:102890000703000000647F5F949A0300CE00B70036
:1028A000CD00900703000000FFFFFFFF4803005228
:1028B0004F52D8050056022C025502510702000063
:1028C00000536654A8DA050058014D01570151071D
:1028D00002000000677F5F00DC0500A605A005A5DB
:1028E00005510702000000FFFFFFFF4907004541B7
:1028F000A6E10500E003BF03DF03B105010000000E
:10290000464D4986E50500F603CD03F503B1050103
:102910000000004E544E7CE90500900380038F03B5
:10292000B10501000000555B580CED0500880276EA
:10293000028702B105010000005C615F94EF0500B1
:1029400010020A020F02B10501000000626468A4CF
:10295000F105005C0154015B01B105010000006557
:102960007F5F00DC0500A605A005A505B1050100F7
:102970000000FFFFFFFF4A0600464200F30500F299
:1029800001D301F1011B0703000000474D4BF2F496
:1029900005001802050217021B07030000004E582D
:1029A000530AF705007A016E0179011B0703000045
:1029B00000595F5D84F80500A2009A00A1001B0782
:1029C0000300000060616526F9050068005F00678C
:1029D000001B0703000000627F5F00DC0500A60506
:1029E000A005A5051B0703000000FFFFFFFF4B0329
:1029F000003A498EF905008207470381074B070219
:102A00000000003B61498EF90500820747038107FA
:102A10004B0702000000627F59689F0500EE00E549
:102A200000ED004B0702000000FFFFFFFF4C03001A
:102A3000514810010600F403DE03F30337080200D7
:102A4000000052615404050600F801ED01F701375A
:102A50000802000000627F59689F0500EE00E50053
:102A6000ED00370802000000FFFFFFFF4D050042A8
:102A70003FFC060600840BF306830BEC0502000006
:102A800000434946801206007A09C8057909EC0519
:102A9000020000004A5F4EFA1B0600CC08E604CB99
:102AA00008EC0502000000606654A8DA0500580131
:102AB0004D015701EC0502000000677F5F00DC0557
:102AC00000A605A005A505EC0502000000FFFFFF1C
:102AD000FF4E0500342BC62406007400310073003D
:102AE0003409020000003540403A2506003C001938
:102AF000003B0034090200000041544C76250600DA
:102B00001E000C001D0034090200000055623594BF
:102B1000250600100006000F0034090200000063C3
:102B20007F5F00DC0500A605A005A50534090200AD
:102B30000000FFFFFFFF4F03005148A42506001AC5
:102B40000604061906E70803000000525A53BE2B7C
:102B5000060016050A051505E708030000005B7F5F
:102B60005F00DC0500A605A005A505E70803000039
:102B700000FFFFFFFF5006002629D4300600C40BDB
:102B8000D705C30BD30303000000273430983C065D
:102B9000006A0F260A690FD30303000000353F3C8B
:102BA000024C0600C00ED007BF0ED3030300000086
:102BB000404D43C25A0600960D3403950DD30303CE
:102BC0000000004E614F58680600520DF703510D8A
:102BD000D30303000000627F60AA75060022059DF2
:102BE000012105D30303000000FFFFFFFF51050093
:102BF0003730CC7A0600C61DFB09C51DD303030080
:102C0000000038433C9298060024149C082314D3F7
:102C10000303000000445548B6AC060092139A071F
:102C20009113D30303000000566B56142F0400BA0F
:102C3000122800B912D303030000006C7F5FFE6B03
:102C40000400BE04B204BD04D30303000000FFFF70
:102C5000FFFF5203004E4848C00600020B14040157
:102C60000BD502010000004F66544ACB0600560CFB
:102C70004704550CD50201000000677F56142F044D
:102C800000BA122800B912D50201000000FFFFFFB0
:102C9000FF5302004E48A0D70600E80AD20AE70A0E
:102CA0006004040000004F7F5388E20600980B8CFC
:102CB0000B970B600404000000FFFFFFFF540400AB
:102CC000343C20EE0600FA0B7B0BF90B10090400D4
:102CD000000035483C20EE0600FA0B7B0BF90B1088
:102CE00009040000004965541AFA060050063A0625
:102CF0004F06100904000000667F61409A02000040
:102D000001FA00FF00100904000000FFFFFFFF555B
:102D1000020045426A0007004A06A5014906B004C0
:102D200002000000467F4FB4060700D20CA002D17B
:102D30000CB00402000000FFFFFFFF5603003F51EC
:102D400086130700FE0E1D08FD0E74080500000026
:102D500040695186130700FE0E1D08FD0E7408051C
:102D60000000006A7F5B842207009C075D049B07CC
:102D7000740805000000FFFFFFFF5705002D3020FD
:102D80002A07009C0646069B06780C040000002ECD
:102D90003D30202A07009C0646069B06780C04005E
:102DA00000003E5048BC3007001205FC04110578B5
:102DB0000C04000000515F48BC3007001205FC0401
:102DC0001105780C04000000607F60CE3507009E7E
:102DD0000493049D04780C04000000FFFFFFFF58DB
:102DE000040047356C3A0700AC0A7507AB0A050BBF
:102DF0000C000000485351184507003E06A3043D4F
:102E000006050B0C000000546351184507003E06F0
:102E1000A3043D06050B0C000000647F5AB00F01AF
:102E2000009E0095009D00050B0C000000FFFFFFB9
:102E3000FF5903003F4A564B07004A0BC700490B96
:102E400000000000000040684A564B07004A0BC7CC
:102E500000490B000000000000697F56A0560700E3
:102E6000620656016106000000000000FFFFFFFF40
:102E70005A05003430025D0700BC0C670CBB0C1314
:102E8000080500000035423CBE690700520B270BC5
:102E9000510B130805000000434E481075070060F1
:102EA000094A095F091308050000004F5A53707E54
:102EB000070026091A0925091308050000005B7F91
:102EC0005F96870700EE06E806ED0613080500008A
:102ED00000FFFFFFFF5B03003B4FB4060700D20C6F
:102EE000A002D10CB202020000003C614FB4060700
:102EF00000D20CA002D10CB20202000000627F4F8F
:102F0000B4060700D20CA002D10CB20202000000ED
:102F1000FFFFFFFF5C05002E311ED40000E0018F93
:102F200001DF015608080000002F4038FED50000E0
:102F3000A4016D01A301560808000000415043A2FE
:102F4000D70000D000B300CF0056080800000051A1
:102F50005D5072D80000F800DD00F7005608080048
:102F600000005E7F616AD900003A003400390056E3
:102F70000808000000FFFFFFFF5D0500312AF4B3E1
:102F80000000B60B520AB50B1308290000003243AB
:102F90003EAABF0000B6054505B505130829000087
:102FA00000444E4760C50000BC058F05BB051308F3
:102FB000290000004F5A541CCB000018050C0517BF
:102FC000051308290000005B7F6034D00000EA038D
:102FD0008503E903130829000000FFFFFFFF5E03DC
:102FE000005544CE410400381834073718DE07086E
:102FF000000000566556142F0400BA122800B912BA
:10300000DE0708000000667F4FB4060700D20CA060
:1030100002D10CDE0708000000FFFFFFFF5F030086
:1030200034301C040400701554006F153909050074
:103030000000354C458C19040088158D0087153922
:1030400009050000004D7F56142F0400BA12280015
:10305000B912390905000000FFFFFFFF6003004EB1
:1030600043848E07004809A90547094208A00500C6
:10307000004F5A5B842207009C075D049B074208AF
:10308000A00500005B7F5B842207009C075D049B1A
:10309000074208A0050000FFFFFFFF610600363C65
:1030A000CC97070004176B100317C909060000002E
:1030B00037443CCC97070004176B100317C9090667
:1030C0000000004E5454D0AE07008A12DE0C891264
:1030D000C90906000000607F54D0AE07008A12DEE6
:1030E0000C8912C90906000000555F54D0AE0700D4
:1030F0008A12DE0C8912C90906000000454D3CCC3D
:1031000097070004176B100317C90906000000FF9A
:10311000FFFFFF62020066585AC107002E03C90272
:103120002D030907A0050000677F51184507003EE1
:1031300006A3043D060907A0050000FFFFFFFF638B
:103140000300373C88C40700F409C909F309EA06FB
:103150000B000000384F3C88C40700F409C909F38C
:1031600009EA060B000000507F547CCE07003E06A3
:1031700033063D06EA060B000000FFFFFFFF640276
:103180000050426A0007004A06A5014906DE07A072
:10319000050000517F56A0560700620656016106E1
:1031A000DE07A0050000FFFFFFFF6501000054BA25
:1031B000D407003E0C0A003D0C000000000000FF98
:1031C000FFFFFF6603005544CE4104003818340762
:1031D0003718830209000000566556142F0400BA00
:1031E000122800B912830209000000667F4FB4065E
:1031F0000700D20CA002D10C830209000000FFFFDF
:10320000FFFF670300533DF8E00700FC088904FB5B
:10321000080D0402000000546455F4E90700EE04B0
:10322000E304ED040D0402000000657F59689F056A
:1032300000EE00E500ED000D0402000000FFFFFFBE
:10324000FF680400463CE2EE07001401EA001301A7
:10325000840BA005000047514CF6EF0700F000DE9C
:1032600000EF00840BA005000052615FE6F007004C
:10327000B800AC00B700840BA0050000627F5F5669
:10328000880100D000C900CF00840BA0050000FF1A
:10329000FFFFFF690600283C9EF1070000000000C8
:1032A0000000C909A005000029403C9EF10700006C
:1032B0000000000000C909A0050000414F469EF132
:1032C0000700000000000000C909A0050000505FD1
:1032D000539EF10700480104014701C909A00500F8
:1032E000006065571804010028072F062707C90941
:1032F000A0050000667F58947C0100320018003160
:1033000000C909A0050000FFFFFFFF6A0600283979
:10331000E6F20700480214024702B106A0050000C9
:10332000293B39E6F20700480214024702B106A021
:103330000500003C4A442EF50700AE019301AD01A3
:10334000B106A00500004B5550DCF6070092018441
:10335000019101B106A005000056685A6EF80700F9
:10336000B600AE00B500B106A0050000697F589414
:103370007C0100320018003100B106A0050000FFFA
:10338000FFFFFF6B05002F3B24F907009A036D0335
:1033900099034B07A005000030493B24F907009A28
:1033A000036D0399034B07A00500004A6150BEFC62
:1033B0000700A2029402A1024B07A005000062656B
:1033C000571804010028072F0627074B07A0050000
:1033D00000667F58947C01003200180031004B07D2
:1033E000A0050000FFFFFFFF6C0200674660FF07BB
:1033F000000000000000007407A0050000687F6066
:10340000C4C602004204F70341047407A00500008B
:10341000FFFFFFFF6D0600393660FF07002607A794
:10342000062507B10A020000003A45418606080059
:103430006E05E7046D05B10A0200000046504BF42A
:103440000B080090037C038F03B10A0200000051B7
:103450005555840F0800D0037A03CF03B10A020048
:103460000000565C5E54130800820155018101B1D1
:103470000A020000005D7F59689F0500EE00E5002C
:10348000ED00B10A02000000FFFFFFFF6E080044DC
:103490003858890300D4029E02D302F908020000C2
:1034A0000045463A2C8C03001603E5021503F90883
:1034B00002000000474C40428F0300BA029802B954
:1034C00002F908020000004D5044FC910300A402E0
:1034D0008902A302F9080200000051584AA094038F
:1034E0000040022D023F02F908020000005960531B
:1034F000E0960300DE01D201DD01F90802000000C0
:10350000677F59689F0500EE00E500ED00F90802AD
:1035100000000061665CBE980300CC01B101CB01E4
:10352000F90802000000FFFFFFFF6F05003B418626
:103530000608006E05E7046D05AE08030000003CB8
:10354000474BF40B080090037C038F03AE08030085
:103550000000484F55840F0800D0037A03CF03AE14
:103560000803000000505F5E5413080082015501FB
:103570008101AE0803000000607F60CA8901000C71
:103580000000000B00AE0803000000FFFFFFFF700B
:1035900008001E69D614080072004B007100B207C3
:1035A000A00500001F2869D614080072004B0071A6
:1035B00000B207A0050000293269D6140800720085
:1035C0004B007100B207A0050000333C69D6140817
:1035D0000072004B007100B207A00500003D466973
:1035E000D614080072004B007100B207A00500005D
:1035F000474C69D614080072004B007100B207A056
:103600000500004D5269D614080072004B0071008D
:10361000B207A0050000537F69D614080072004B62
:10362000007100B207A0050000FFFFFFFF7101005D
:103630000045481508000203000000009305A0059E
:103640000000FFFFFFFF7202006A534A1808001AC9
:1036500006320519061C0AA00500006B7F60C4C66F
:1036600002004204F70341041C0AA0050000FFFF0A
:10367000FFFF7301000044641E08006203000000A5
:1036800000F305A0050000FFFFFFFF7401000062CA
:10369000C62108008E09FB068D09200AA00500003E
:1036A000FFFFFFFF7501000040542B0800A20CAB88
:1036B0000AA10C7408A0050000FFFFFFFF760100BF
:1036C0000053F6370800D4019F01D3011606A00568
:1036D0000000FFFFFFFF7701000030CA3908003209
:1036E000101B053110C1F2A0050000FFFFFFFF789D
:1036F00001000038FC490800DC0400000000B904A7
:10370000A0050000FFFFFFFF7903005854D84E08C2
:10371000007C03D7017B03FC04A0050000596C600A
:1037200054520800BA01F200B901FC04A0050000DF
:103730006D7F610E540800B800B200B700FC04A011
:10374000050000FFFFFFFF7A0100004DC65408008E
:10375000B21A0000B11AAB06A0050000FFFFFFFF80
:103760007B0100004D786F0800DC07F404DB07DE06
:1037700007A0050000FFFFFFFF7C01000044547715
:103780000800F6020500F50220D100000000FFFF4E
:10379000FFFF7D0100003E4A7A080096070300956E
:1037A000072B0600000000FFFFFFFF7E0100006204
:1037B000E0810800300E10002F0E00000000000015
:1037C000FFFFFFFF7F0100005A109008000C080067
:1037D000000000A508A0050000FFFFFFFF807F7F1D
:1037E0007F7F8181818282848282828187848686B2
:1037F0008385858986818C8C8A878686888F8A8155
:103800007E7F858A837D7B80807C84797F84848DA4
:103810008A8C7E7F90998D75747D959D887576894B
:1038200087876D6D6E6F92908A817B758490897B9E
:10383000738B947C7174847C7C6B59586579808D12
:10384000818E8E81858A8066717F93A7A1A19DA2BA
:103850007C666D86A3A2A99AABAC9F8B6C6778A09F
:10386000A4B0B4BEA2735D2D1E263D403E565A59EB
:10387000474D3E3E585A838B8C7F6D593E3016190A
:10388000223F607387756C50565A5A7B7C7E7C96BB
:10389000A2A8A8A6A497A5ABC0BEA89C838D9DC2D4
:1038A000C0ACA3A6C9DBECD9C9C1B9BEB6B19B985F
:1038B0009EA2998B9693A4967D6F5F6B89997A618E
:1038C0005C6C83746C5C57485B65596364675047F4
:1038D00058606D79877F6B4F475E717A604A425AB4
:1038E0006D6A60555E606E77778485705566809BE3
:1038F000A9AFAC9F9A8D908C97978B9097BAD2C3B3
:1039000097868C90ACC9DCD0CAD2BF9A6F5C484E07
:103910005D5B5A4E515447302D313457697F898150
:103920007D653B1E252D435A5E5B5B6356534843C2
:1039300043485E7087949084829CB9C5C4C2B6AE79
:10394000B5B7B0A4A0A0A1A1ADC4CBC7D8D7C0B310
:10395000C1D7DBB99FA1B2BCB6AB958C9AA79571C4
:1039600078837B6F6E767370757B6B5347475160BE
:103970006550372B425D58575C595752494A5F741E
:10398000614B47515D675C4037516C79868989731B
:103990005B62717E8F9FA9B2B5C0CBB79B949794A1
:1039A0009CB9CEC8C0C2AA8A8398B0BFD1E3E1C691
:1039B000C0B6896D6D6F655B5B605E4C452F090B12
:1039C0002F4E6179837859483B292A313838425A39
:1039D0006D65462F2226415B67666258677F90932C
:1039E0008798AEB7C0CBD0CABCA39792A1B7BCB0E2
:1039F000B2D5E6DDC6D3DBC7C1C4C1BED0D0C2B02C
:103A0000A7ADA5A0A9B4976F7181989389806C6DBB
:103A100070736A737F714B2F394E6161554F5662D7
:103A20005F665C4D4B505C656F716B4632353D583F
:103A300067726D6766696A5D514B596E86A9BDBB39
:103A4000A9A39384808BA3A2B1BDBCA9937F697BFA
:103A500097B4BCBBC3CFD1B49F7B69666A76777ECF
:103A600071593218151E34415361757A817C543472
:103A700019284D6168625E555A57524243584F4E5D
:103A8000546A7C807D79898A9CADC1D1CDCABEB88B
:103A9000AEB8B0999AA9C1C4D1D7DFD5C5CBC2CE33
:103AA000D0D2C5B3C2C9C8B2B4BFB59B81898DA5F8
:103AB000A18F715D6F73807B78726D60555C494E2C
:103AC000423E4A566B74714E43404C636B715D5974
:103AD0004E49494843354D5A636C75765E53484F9D
:103AE0004961838DA5AAB0927C76899EA1B3A6A6D2
:103AF000ABB1A27D7E7F9090A0BCD3DCD0C5958376
:103B000077849C9590756C61624A220C0B3B546DD6
:103B100070757C66553F4E4C54594B5656656366DE
:103B2000585144374E52696358566A7F75827F9662
:103B3000A9B5BFB8C5C2C3A8979DA5AAA5C0C1C84D
:103B4000C1BCC8CAE0D8C8AB9FBAD3DFD1C6A8A849
:103B5000A9A6ADA6AA9894827C85898E7171717F81
:103B6000868D7F5649395162696E60665B5E5D691C
:103B7000676A756770646E675141404E4B60697348
:103B8000796C65403D3E595F6B8B949B868576775B
:103B90008595A7999B9EB1B3A78E6561689CBCBDB6
:103BA000B3B1C1B7B4968A89909F9AA391826037C6
:103BB0001D1C2E3552525B61545C5C6756493C4774
:103BC0005E5B5A5059545E523A3F4E634B45484FE4
:103BD0005D5C686370788E9FAAC6C8C19C9DAAB1BF
:103BE000B0ADAF97A0B2C4CBCDD6C8C8B2B2C3D324
:103BF000DBD4CDB1B7BBCECBB3B0A0ACACAD9D8761
:103C00007E79898C999691866B5F586B6A695E594B
:103C1000655A665F5651656F656C707D6654523E9D
:103C2000343554556775725D3E3D323D426175666F
:103C3000657493908268637C98B6B6BBABA8A08588
:103C40007F7B8A8FA4A8B6CFC9BEA9A28F93A6B93D
:103C5000CCBEA97E64574C443132395B554955621C
:103C600069545747495869624B535361564B5450F6
:103C70005043514A4A535549344A5A6D7593A49C4E
:103C80009E99A4ABB8B7A5998392A6C0C4BEB1A4AF
:103C9000B9C7D8CCBEBABFD0CED2C6C5BFB7BDBFDC
:103CA000CDCAC39E7F808C9C9B9A8C96907E7C71A3
:103CB0006D606E6763626366565452534D597B7EE6
:103CC0007C767B6547352E445976706957575F4F30
:103CD0003F34454D5362778B81775B5D6E829BA548
:103CE000B7B0BCB5A39F92817085A3C5CDC2B5AA5C
:103CF000B3A4A2A8B9CECFCEADA0968A6C48423F5D
:103D00004F4E54505257575E49495864584E524B83
:103D100054575F523D3E434C4D60564029212D3E45
:103D2000555C64605F7994ABADAB988F9A9DA59E0E
:103D3000A7A9AFA69FB5C4CBBFB9B2C4D7D9D3BBCF
:103D4000B6B4C4CBD0D7CFCDB8A79598958FA3A63E
:103D50009E86939B86776E706A73766D65666C57E8
:103D60003B2A45647588887D5D5851494A4C514BC2
:103D70005E717D735841303E424D5B6B71696D657C
:103D80006D69615F729AB0C4BFB3A99E87727C945B
:103D9000B5BAB6B1A5A8AAADA0A6B7C9D4CBC7BEBF
:103DA000B798816D52525960504C4A4C535A5F51EA
:103DB0004A4852575665625341403F485E676049E2
:103DC00040383D3F3B4338393D49617A95958C8277
:103DD00093A3B0AC918D98B0AEB3AE9EA1A6BBC478
:103DE000CDCAC9CDC1B1AABEC9D2D8D3C9C5CFC168
:103DF000A48F93A2A6A1959A9B9995836B61717CE0
:103E0000868D896C45403D4C54566474847E746440
:103E10005D4B3F40435C6F7C715F56494741404773
:103E20005A60636B6C6E6254434A6C92B5B8B2AD23
:103E3000AB9A8A878A9DA5B6B5AAA9A7AFA39CA36A
:103E4000B0C1D2DDD8CCBDB5A4918372695D584DA7
:103E500054666861493A3F55676E6D574A43484C0E
:103E60005A65594C404D5A61573C2D212A344446DD
:103E70004250667582908A8D91929390A1ABAFAEBD
:103E800098828CABBFC3BAC3C9C2BAAEAFB1C4D7F4
:103E9000D6CDCAD6CEC3BBB59B8C99A7BABAAC92C5
:103EA0007D7B777D7E8E96948269635A5A453A4827
:103EB000628089857868554D4B4F545A6B69686D9F
:103EC0006A5E4334364752657568625D55433744D0
:103ED00065838EA1A89F999B9B8A868EA0ABB1B368
:103EE000A8A399979599ADC4CDCAC6C0D1D9D2B56A
:103EF00088797171717572605044434961655D578D
:103F00005052535C5D5349474A5461615B544F4979
:103F10003D342F363128253A5C70776B696C7D9182
:103F200096958FA1A59489878F96A0B3C8BEB4B487
:103F3000AEB4B4BCB4B5C9D8E4DDD9CFC2AA9BA68F
:103F4000BACAC6B6A2979192927F7D8FA5A3978B8E
:103F500078674C444D586575837B7772685B504C2D
:103F6000535E5D6F7B766F5647372D42636F6B6391
:103F70005952423D403F4B607D87898E9B9B8A8191
:103F80007E8CA0B6B5A196949F9FA1A19B9FACBB30
:103F9000CEE2E8E1CCADA0A0A4A0937D655B5D6717
:103FA000675B4C50515963636157504845515C5FA2
:103FB000564E4B606D604F38302C212033404152BB
:103FC00057585561707A8898A592818A928E8C96FE
:103FD000A1A3A5B5BBBCBDB4A9939AC1DDE6DDD252
:103FE000CDC9C1C1BEB4B9C5CDBFB2ADA1958282A4
:103FF00091A0A9AFA7928068645F565A626B717DE9
:1040000085816A55554F4E5C767B74726C61453A7A
:104010004050626E6E5F5253594632333A57707C4D
:10402000807A777D85838F9A9B9697979CAAB3A871
:1040300090797594B8CBCCC6C5C8D1D4CCC2B0A742
:104040009D8B81857E695E55575E5F615F5A5256D2
:1040500056545651504743536A675F625B4C33284E
:104060002A2B2A3841393339474B59798A82767F4E
:10407000888D8F897F78869EB3B6B1AFAC9F8F99BC
:10408000ADB8C6D1D4CECAC9CEC2AEBAC8D3D5D0C7
:10409000C0AE9E91959599A5B1B0ACA29288796673
:1040A000615C62697E8B817A725C484C5A7381775D
:1040B000726D635F5E4D404C596772726B5A433943
:1040C0003435465E6B60565A6C8091907C71799461
:1040D000A8AEAAA79E8F8281919EA0A7ABADC0D9A2
:1040E000D6CECCC3C0B8B7B5A58A746F76746A61F2
:1040F0005D565862625D5D55544F4042515A586852
:1041000072695648413B3B47452E1D26333738439D
:104110004B4E62768589827F7D706B81969DA8A9C2
:10412000A4A7A49C9D9797A6BDD0D1D0C9C0BBB869
:10413000B8C4D5D8DAD6C2B2ACA39E999AA6B1AF0C
:10414000B7B9A696846E5E61728288858175646057
:104150005A596270797A7574776A54474149668210
:104160008568514F4E4E57493E3E434F5B666F76D2
:104170006C5D5F748E979CA298949B9B9994847FAE
:104180008794A9BAB7B1BAC7D3D5CECBC8BCB0A3B0
:10419000948F887E7870655F6567656E6F60464056
:1041A0004348566566655E57605D535557453935DA
:1041B0003237322925202A445F717674736F69681B
:1041C0006A7684909CA59D9B9E958D88899FBAC890
:1041D000C7BDB6B7B0B4C1BFCCD9DED3CBC6B4ADC2
:1041E000A398959CB1C3CBC4AF978574707F858627
:1041F0008681777D8067564E526988958A71615AAB
:1042000050535B676F645D60676B6F6149372D3D2D
:104210004F5A63604E4C58606C6F717B88959FA7B6
:104220009C939290867F8F95989DA0A0B0C5C7CD96
:10423000CECFCFC8C1BCB0A2A1967E6D6B6F737D8F
:104240007C78624D4B4A50565B575454666D5F5EA6
:10425000565355545650463A2D201C1A203C4D5961
:10426000636B676B69575961738BA2A6948F938FA9
:1042700082878E98B1BBB9B1ADABB7B9AFB8C1CD7C
:10428000D6E5E4D2BDAA9E9299B1C4C7C5BBB0B170
:104290009C8D827B8387969A958774554C5D6C8440
:1042A0008B81756D6968746B5C53515C6C7F7E703B
:1042B0005D544D4B4D444B4C4E50535654534B57FD
:1042C0005C6C85909490938E93978F85848D8F8E60
:1042D0008A97A1ADC5C5C4C1C2CCD7D8D0C3A58E5D
:1042E000808B8F878A847B7373665E5C4D4F5457D7
:1042F00059676C625F585854616F6A635243373133
:104300001E181C263D4D605F5A5D5C5144546B88FD
:1043100097959286807D8D888696A1A5A2AFB6B22C
:10432000A5A29D9DBAD1E6E8DACCC0AEA1ACABAAFD
:10433000ACB8CACECFBBA07F798999AEA99C87744F
:104340006A7076746F626D76808B8075645D565985
:10435000626B736F706A6A666756454A424C595C75
:104360004E4A4A42484A51586C828584828B9198C1
:104370009090917B767F8F939DA49FA2A6BCC9D37A
:10438000DFDDD4C2B3A3A79D92978E8D878C8678EC
:10439000685A534F5B6269615A5E5F5E4F5A67703D
:1043A00074716B5749382C181424374E4D4F524DA9
:1043B000434149496378827E7A85898579817D7D0B
:1043C0008FA1B6B4A797908D98ACB7C4C4D3DFDBE8
:1043D000D3C0AB9698A3BDD2D9D5B8A89B9AA3ACAD
:1043E000A99E9F9491949483746C606C7688898361
:1043F0007D6E706D6B606163677779756B70665CFD
:10440000554D57545657564E424042454258615CAE
:10441000656F828A9597938377808390918C898149
:104420008595A9A9B9CCD4D3CFD6CCC1A9A2A09D3A
:10443000A29FA3948C8677645E6464686162605C0A
:104440005E55545163727981776E6046262125311D
:1044500043434B3F343D4847444B4A55647C8D8928
:104460007D696A6F79859AA39AA199939598928D9F
:1044700096A5C9E0EDE1C4AB98A1B4C9C5C5BFB567
:10448000BCBCBCB0A9A19DA6ABB3A99C8985827810
:1044900077727C7D808381827C7165655F6A7572CD
:1044A00075737C73625D5F5E5B6862554B4649491C
:1044B0004E4C4632384D5D70707E82817E818385A0
:1044C000928F88797A8080878A99A5B6C1CED9D310
:1044D000D3C0B4ABAEB2B0ADA4A7A08E7F79726FDB
:1044E00075686B6D66625A51444B5E78848A8A7235
:1044F0005C4A473F3D3A383E384044433C313333D1
:104500003B4F6E74716E5F646C75767875849CA891
:10451000AF9C826B6B849DB7C3CCC9C1B8B4B9B62C
:10452000B6B1B9BBC0C6C1C0B5B1A9A6ACB9BBAD27
:10453000AAA29D9A8F80787E7F86818288858576E3
:104540006A64686974807D7D69626971736C655E97
:1045500062585557575B5044302F3949555B61605D
:104560006D757A7E838B89878388887B726F7B8663
:1045700096A2B4C1C9D4CBBFBABAB9BCBBB3B5B3A8
:10458000AB9F96887A7776878680715B4A3F4B57D8
:104590006571817F7978717160493B383E485A5224
:1045A000442D2025324345444051657170655D4F6F
:1045B00053637D97A6A8917D6E6E7986949DA9AC74
:1045C000B8BFC2BFB2AAA6B4C4C9BEB8BEBABAB553
:1045D000AEADB2BABBB9B0B6AB9B98928C7D7E86BD
:1045E000929491897875727374777A7C7A6C6C7412
:1045F0007E7E726860656A6B666964564D413F41B4
:10460000403E42484C5A606167707C828483908E41
:10461000867A6C6569798496A2AEB5BBC3BFC1BF0B
:10462000B8B3BDCACAC7B7A9958487929D9E99821F
:104630006C5F57585454565D6A80908F836456530C
:10464000555A5756514C3D3B3B372F24232947633E
:104650006E65534A3E41536D828887898C8180758F
:10466000686D7F939DA2A7B3B5AEAAA9B2B3B5BD3D
:10467000C4C1B6B9B2B1B5B8B3ADB3BEC7BFB6AABF
:104680009E94888890999D96877F7F83847D7B798F
:10469000747172797C85807169686D7173707271E3
:1046A000685F55534B45433E3B414C4B504E565F24
:1046B00067737F8E8F8E81757069686C767C899A3E
:1046C000ACB7B6B5A8A5B3C2D2D7D2C6B59E99A588
:1046D000A9A59D9E9A9792856D50444754667C8803
:1046E00080726A787B7165564F52626863523F27C9
:1046F00013182A4757504C524C3E3C424D5A677350
:1047000081898782746B686C7A7E8596A4A29C9F4F
:10471000A5ABA9AEB1B5BEBDB7B9BBB8B2A6A3B083
:10472000C3CBC9C6B8ADA59C9A9DA3A0968D8C8F0E
:104730009493888279757A7B7E8186817A7471758B
:10474000716F757B7A787169685F574B4546474C46
:104750004C463A3C414C606E76777E8C8F82766D0B
:10476000605B5F728B9BA4A1938797B1BEC5CBCBD7
:10477000C5C2C1C2B8A49598ACBBC3B99C7E6E6AD1
:104780005E575D67686671808D8777645B5B627377
:104790007E7567593D29292F35393F495154433397
:1047A000343C40495966747E8079726C69686976D8
:1047B000858B8888919FA5A29D9AA5B1BBBEBDBFE0
:1047C000B8ACA0A1ACBCC6C6C0BBBBB9B7B2A8A6AA
:1047D0009F99979CA19D98948F847F807A7F898AE6
:1047E000827C7D7D7B76747171747F89847568614C
:1047F000595D5E56504D494239363E47494B526DE0
:10480000889191846B585862707C837F787C899AF8
:104810009B9194AAC5CDD0D2C8B3A49FA4B7C3C35B
:10482000B8ADA9A39D886D5C56545C758B8A7D6C70
:1048300064696D6E72767D8074644D3D39363339AE
:10484000454E4C44403D342B2F3A4E61696B6869AC
:1048500073746A64666E73777C828D99968B85918A
:10486000A1B0BEBBB7B0AAA5A9B0B3B4B2B5BDC321
:10487000C1BEC1BEB2A5A1A19FA8ACA59E98908EB5
:104880008C8B898381838E91847C7C787274767F13
:104890008A8A80736D6F74726656515857525042AF
:1048A0002B1C25406478767173736F6E6B66656838
:1048B0006F757F878576697492B1BFC3C4BFB6B088
:1048C000B5B9B7AEACB1BCCDD0BFA68E7E6F6161BD
:1048D0006E7F857B726E6A676B7179838784786D72
:1048E0006557473A394552504A484039322C2B35A2
:1048F000475253515B697474675E5D5F667984816A
:104900007E7D7A7B88939BA6AAADAFACAAAEB0ACF5
:10491000A8AAAFB0B5BFC9CBC2B6B1B4B1ADACAA4D
:10492000A9A8ABA4999B9B8C82858E999A90827A38
:104930007C7C7E8486817678828F8F7E6C62606DCF
:104940007A776B5A4A3422283B46474A596D787722
:104950006F635A5A65737C7F786B5D5C6F84898E58
:104960009AA8B5BBBDBBB7ACA3A2ABBDCDD6D0C0DA
:10497000B5AA947C747A8183807973706966696A58
:10498000778D8F828282705D4E4A505657564F43C4
:10499000403F3D342F302F354254606061625B569A
:1049A00059627275727171706F757F868F97979962
:1049B000A2B0B4AFA69FA2A9A9ACB4BDC0BABABDFB
:1049C000C1BFB5ABABAFB2B2B4B1A6988E8C95A354
:1049D000A49587848C938D847F7B75768699988A3D
:1049E000776A6A7785887E74716A5A4A41362723C6
:1049F00032516969635B5353616C6E73756E6762A4
:104A0000636E6D6164758A9EADB4B1AFADA49B98C1
:104A1000A6C3D1CFCDCAC2B2A097938B8A8C88810E
:104A20007C76685B5C6D7E868B928D7C6D6B67603F
:104A30005E605D5350545651463626212B3C464805
:104A40004C5357524F515D686D6962656E6E6C7163
:104A50007377777F8C97A2A7A4A0A1A3A3A1A5ACED
:104A6000AEADADB7C7CBBEABA6B0BBC2C1BAAEA5EB
:104A7000A1A3A9A9A0958C8AA0B1A48D807A797EE2
:104A80008893988D837E7E7C8181767685929182D3
:104A90006E5B422D2C394A51514E474B59625D573E
:104AA0005F70746F6A6A6C64595455627993A1A3FC
:104AB000A3A5A093919CA9B1BFCFD3CDC1BBB4A6F0
:104AC0009F9E9E9B9A968971626063707C878881A5
:104AD00080868A837262616566646163645D4B3659
:104AE0002B2D353C40404242434950585B5A565D5D
:104AF000696A65686B686561677C8A8D8B8E939F38
:104B0000ABA69C95959BA6B0BEC1B1A6A5B4C2C2EA
:104B1000BCB4B0B2B9BDBAAEA59D9193A3B3B3A3D3
:104B2000938B8A888A8A8A888C93918E8A7F6E6515
:104B30007391A6A1928477675B514341464C4740ED
:104B40004651564F4B515A626D777772635B534AA9
:104B50004E596D808E9698938E8E909294A4B8C381
:104B6000CCCDCABCADA5AFBBBAB2A3948A877B6CCF
:104B7000686C757A7C7D88938F85776B666A6F74B5
:104B80007C746455514E463D383A393B3A3A3D497A
:104B9000514843485462686560605C5D61696D6757
:104BA000676A7C94A29E928888959DA3A7AAA6A0D6
:104BB000A4B0BDBBB2AAA5AFC1CECABBAEAAA49FCA
:104BC000A5ADB1A6A1A3A5A79E8D7B7A899EA59C24
:104BD000938D83726D7582949B9C98918780766388
:104BE000584F4D4B4A4B4D4E454344474A5A7278B5
:104BF000756F675B4F484A56606D7A858C928D7EE3
:104C0000767A92A4AFB7BBC0BCB5B0B6C0C4BFB7CC
:104C1000B1A7A0998E81746C666F808C8F8C868012
:104C20007F766F717D857C726867676458483F3A0C
:104C30003C3D424441393238475758514F515C68E6
:104C40006B645D524E56607584867D787F8F9C982C
:104C5000918C9198A2ADAFB0A9A09CA3B3C2C7BBE1
:104C6000B4B7BEBAAEA7A0A5A9AFB6B7AFA3968595
:104C7000828C9DA4A2A1988C7F7C7A7A8187949A59
:104C80009C9A9A94857466615B5B5C57534B453C78
:104C900035374A6067686A7470615448414658669F
:104CA0007580837C726E728089929EA7ABA9ADB429
:104CB000BABCBCBABAC2C3BEB4ADA08C7A6D727DA8
:104CC0008A8B85828284807F7F817B76797B8384D7
:104CD0007762565356584D473F36353A4346453C22
:104CE000363B50656A64554F4F55595A6062666746
:104CF0006B7A8E9282787A8794A2A69C9A9DA0A0C5
:104D0000A3A5A8ADAEB9C5C8BEB3A8A0A1A9B8BE99
:104D1000BCB8ADA096908F99A1A3A7A39B91908AB0
:104D20007B747C898E9398A5A99E8C7C747277770E
:104D30006C605855483D3B3B3B45596A7774695D0B
:104D40005247434A526370746C65686F75757C8511
:104D50008A8E95A2ABB1AFA9A9B3C1C8CFCAC4BB53
:104D6000A89487888C8C817C7D848E8E887D7575D7
:104D70007D868B9084746D7179796C5446464E5162
:104D80004C463C363030384C5956504A4F5A645F86
:104D90004E464A555F6C7272716E727C83838A9044
:104DA0008F969EA19B95959697A2B6BFC2C0B9AEAD
:104DB000A29EA7B9C0BEB9B6B2A8A196949CA6A956
:104DC000A5A3A2A8A08C7E7878808D99A29F9C9C98
:104DD00097908A867F7D817D715F54493C2F314356
:104DE0005A6B6F6F64564F4D4C4F595E5D5B616AF5
:104DF0006B6A6568707579818F99A49E92919EB354
:104E0000C5CEC8C3C1C0BBB2AA9A877F858E97970B
:104E1000857776818A89847E818180838B8C837477
:104E2000615A606E6A58493E3A3A41423A373C44C8
:104E30004C595D5B5348484E4F525C5F5D60676FF5
:104E4000706F6F757B828E979E9B91857F899AA9E3
:104E5000AFB2B5BAB5A69FA1ADB8BFBEBBB6B2B32F
:104E6000ABA199979CA4B0B8B5A59A968B7F7D8489
:104E70008B94979A9E9E9E978E8588959991867B16
:104E8000634B3A37404D585D61615F5D56525156F4
:104E9000564E4D59656C6C5C5457606F7B838584AE
:104EA00081828897A5A4A1ABBECDD5CFC0B4ABA25B
:104EB0009C9C9D9A91837D8290938A7E717483904D
:104EC0009491877E7A787E80786C635F5B58514CD2
:104ED00041322F3640484E4E4F4E4E514C4A4E5066
:104EE0004D4F58646A645D585E6A75818A8F9492EA
:104EF00085797B8392A1AAABACA7A3A8AAA7A3A9F3
:104F0000B6BCC0C2BDB2AAA299989FAEB7B6ADAEAC
:104F1000ADA1938986848790989DA2A4978A858F56
:104F20009EA5A6A29886715E534E4E55524E565F70
:104F3000625F5C54504B49505E69685C4F4F5660ED
:104F400066656569747D818283837F8696ADBFC502
:104F5000C2B9B6BAC0BEB5A89C9593999D988B81ED
:104F60007C787F878B8B8785878B8988807A787917
:104F700079726D6A6152453D3A4042424345484E1E
:104F8000514C494748484C575D5F5E5B524E505A02
:104F90006F7E8686837D7D81828384919C9EA1A77E
:104FA000ABA59E999CA8B4BFC1BCB7B8B1A59EA043
:104FB000A8A8ABB2B7BAB5A79588868F97999D9FD9
:104FC0009D9286828A959DA7AAA9A295877E7468DC
:104FD0005C4C4A54626A62544A484B535C5F5C5969
:104FE0005A5A5A5B58504B535F707C7C7870686B90
:104FF0007B8792999EA4ABB8C3C7C3BBB0ABAFB11C
:10500000B2AA9B938F8982838485858585868B8EC2
:105010008A827E7D808583827E7369625B5249428B
:10502000403D3F45474B4D4C413B3C485A605F57E4
:10503000514C4A4B515D646D70717A84847A7172FF
:10504000808F979C9C9E9C9B97969AA5B0B2B5BC6E
:10505000C4C0B2A6A1A0A1A9B2BABFBBB1A3969188
:1050600096999DA7A9A1918784858C9193959EA7D8
:10507000B1B2A5907C6E66686D6A635A55514F4F08
:1050800050504F51586669665E5043424D59676FA4
:105090006F68626771777472747E8C99A8AEB1B4D0
:1050A000B4B3B6BDC0C0B9B2ABA19A948E898581A4
:1050B00082868B8E8A878380808184888C867F7AA3
:1050C000787B7666504542494E4E4D463F383439DE
:1050D0004A5756514E5156585347424B5A63686F80
:1050E00075786F6B70787D878E8E94999B96909172
:1050F00095969EADB9C2C1B9B1A69FA0A9AFB7C0E0
:10510000C0B8AA9F989BA2A8A9A5A09CA19E918483
:105110007C7B8393A3AFAFA9A196908B8880767098
:105120006D6C645E56493C3C485C6C6C675B504EF1
:105130004F4F5154585C5F636B6D6B6664676C7561
:10514000808D959C9C9BA1ABB7BFC2BFBEBEBBB4BC
:10515000ABA59A8B84868D9494867D7D858C89847D
:105160007F808285899090867663585C6765574B0F
:105170004443403E3D3C3E43484E565A5A524442B8
:10518000494D525C616264666B6C6C6D7379808BA7
:10519000959B958E898386919EA8B2B9BEB8A89E2C
:1051A0009DA7B3BCBDB9B3B0B1ADA79F9B9CA2AD49
:1051B000B6B6A99B908580818891989B9EA4A5A551
:1051C0009D9387848C928D8278644F423F48525BD6
:1051D0005E605D5B5C58534E50524F525E6769672C
:1051E0005C585B616B747C818382848C9AA6A5A3D6
:1051F000ADBCCAD0CABBB0A9A39E9C9C9891858027
:10520000849093897E7376828E93938C847E797951
:105210007C776D635E5B59524C4134333942484E62
:1052200050524F4C4D49484D5051535A6367635E3D
:105230005C5F68717D878F9493877B7A808E9EA94F
:10524000ABACA8A4A9ABA9A4A8B1B8BEC1BDB3AB6F
:10525000A29B9BA1AEB7B5ADACAA9E93898785876B
:10526000919A9FA3A4988B868F9EA4A49F958572E4
:105270006156504F55534F565F615E5A53504B49DC
:10528000515E69685C4F4F566066656569737D81E4
:10529000007F7F7F7F7F7F7F7E7E7D7C7C7A787AB8
:1052A000797A7F7D7C7C7C7E76757875797D8E9829
:1052B000877C7B7F8A7F82888685898E9596868289
:1052C0007A7B797E88969B8E7E706E7A8795959292
:1052D0006F5C6777959FA69E76584F5A807462667A
:1052E000666B6964665342454A599BE7E1C18E6F1C
:1052F0005966748B9FADB6A79198918E88807E7DFC
:105300008ABCE5D8CE915B4B3B4289B9D6E7C8B0A1
:10531000876471978C8A909FA0876A83744D3C2B19
:10532000100B2B5360371F22261424254D6D8393B9
:105330009EA0BAD2AFA69C9FA4947A838E8B6E66F1
:105340005E67677F9B8267596E6E768B8E6F5E7A23
:1053500099A4B4ABB7C2A8857690BCCCB7C1AC9ABF
:105360008F6F57586B8E9392B5BEC4BB9A605C69C1
:105370007E8C9A9BA6A5B0A77B5A435380B7D4ECEA
:10538000CA8F684822213F83A17F859C8B6B4D4744
:105390006D6E657770556A76766427152B2C183BF1
:1053A0006480743B251F22404639386698C8D1C5B1
:1053B000CFC1BBB3A9B5C1AFA195876C5C5F6C7859
:1053C000836D5666797F777087A28D7D646292C106
:1053D000BDB7B39F8D7B8DB3C9DCE0BB8B7D817482
:1053E000685A699DAEB3CECCA6817F8C83737CADA9
:1053F000BFC2C4B6915D444F6A83B5E1C79172598B
:10540000523E2D4575829798725858768567484C5C
:1054100054605C5F6C6D5B351610263A57625542DE
:105420004B4B39242D333B425C8F9AAFB9BBC9D16A
:10543000B0B0C1CBBC968A95877676656E88947E2F
:105440006C6F92A7A39593897F6E7794A4BDB69253
:105450005E54768D9BADB8B9A99B826D52477A9AFE
:10546000A3A9B1B0CFCCB6AA816A7D90A0C1CFD894
:10547000B5714E4942739AAFBFC9C2A1632C365A67
:105480008185827C97957B848C7A6D5A4F4E5785A7
:105490009A734331292B231D3046534C4F5F4524CB
:1054A000303F48393453778EADB0A2B7C1C2C2ABDA
:1054B000A1B1BB9F86777479605F60535F645F6959
:1054C0007378836E4E596E7F9EA4A09980798185F2
:1054D0008A94B5E0D9C3A98278808494989EB2C496
:1054E000D4E5E5DCC58B6A7EA7CADBD4B8A4917B82
:1054F0004C264B9CCECFC9AD8967514F53677E81F7
:10550000877F7F99A5895D5664726380967E5F4B25
:1055100044452B121F2D35443F383E373E3A19166D
:10552000353D40505E83ABA69FA4A3B7B8AAA7A100
:10553000A0A191796862615447536F7D7F7772585B
:10554000516D8693948696B6A38F7B6E798BACD182
:10555000CAB6BEB68D747888907E819CBEDCFBD9BD
:10556000AE9E9495999CAEE1F2DDB288674C4E7583
:1055700099B9D7DDB47C6A6D6E5F5A677C848E9D65
:10558000A08968606B7473747985867A5C3C313568
:105590003429181D3E55513D28243A2A1614233F1C
:1055A0004E556E7B889CA0A7A7AFB3AFA09FA6AABD
:1055B000947A67472E4A7D8C7F6C625B5860767266
:1055C0007791ABA3968D78776C6A85ABC1C3ADAF8D
:1055D000B2A09C845A5685A7B4BBC9D4DDC8AC8A96
:1055E0007E98C7DCE4EDE0C9915A537287A2B4C13A
:1055F000BEAB9B937F634C506B87A19B8E8D87784E
:10560000755F60798A968973787B5C453026323283
:105610002A3B465045352C20162132282A3A4F5332
:10562000687E8C9CAAB8B19690A3BCCABB976654FE
:10563000494A596F6E757F6848394B656D77929D01
:10564000A49C765D61708A938C92ABD4DAC0998108
:105650007574707C94B6D4D8D0CEC3A58B82A7D3F2
:10566000F2FDEAD0B085727482878292B0BFC4B472
:10567000886E5B5B67637198B2AC906C6D7D796F7F
:105680007984989C9A8772635D4D342C2F3A4A59DD
:105690005242362E231E242D28323A333047829927
:1056A0009B9F938395ACBCC6BAAEA6825D4345670B
:1056B00076707B7F65503A34496D9CB09C79778BCE
:1056C000877161647F8F98AFC9CFC7AA836960680B
:1056D000778DADCDD4CFB79F7F6D83B8E1F6E6CAA5
:1056E000BDAEAA9A7568738EACAEADC1C8A67B611B
:1056F000535F7288999D9EA0856E707073848E939F
:10570000969C9C876E604E383B3D3E47535F533DB1
:105710002617293D3931261019405F6F6A778C8C26
:10572000838FAAC1CCC0B2A38A7564504B6696A47D
:105730007B3F2B3D48516A828C918D8B83726B64C9
:1057400059617C96ACBDC9C5AE88645355678EC19E
:10575000DFDBC095787593B2B9C5DFECE0CEB8A2B7
:105760009E957F717CA2C0C2C5BB9C887A655F6D27
:10577000889CA2A1937F7B7C6F6E777F90A3A79775
:1057800084806B503B31344D5C5E52332F3C413949
:1057900030282C2719243E4F626867687592ABAA9F
:1057A000A1B7D8D6AE816A6B6E7480898273604966
:1057B0003B3E5068757D939F928378635754607524
:1057C0008BA4B7C9D1C08846344B75AFC7BAACA952
:1057D0009F82707AA0B8C6D9DBD7DCC8AC95807838
:1057E00083919FADBBC4B7A38F7D6C717B81919971
:1057F000A29D9281726F797A7F8A9CAEB4A5865DF4
:105800004B535A534C4B4C4F47464540423E261350
:105810001A31443F303C5A6B6863718CA9BFCAC4CB
:10582000B2A394837C7D7F857D7B736D583D364725
:105830005D657D9CA3947C706A5C5E535173B1D8A6
:10584000D9C39A7C5D505876A2C5C0B1A590868B0D
:10585000848FA6C4E1EDEBDFC8AEA190808492A254
:10586000B2B9B2A89C93887C6A6C7E8D94978C8B1D
:105870008A7F6D5D587198ABAEA08D8376625F5C58
:105880005C5B4A333D59675F3D2A32383328263105
:105890003F48485047425C748AA6C7C5B3A0A2A738
:1058A000938B93897E7E7F817C5E3A2F3E5D747CF4
:1058B00083899CA78B5E3F3C4C6889A8BDC7BE9A74
:1058C000775F58637D99A3ABB1AB99817472839D67
:1058D000BCD7E9EDE4CFB2998C8B979FA1A4B3B26A
:1058E000A89B8E877F837C727284A3AA967F6D6B40
:1058F0006669748FA6B0A385737A8F86614C4B4D11
:105900004E525B5D52534A342C2C272E3C47504458
:10591000343036546F84A7BDB4A2A0A0A3A394864C
:105920008590988D705D57515042344871899DAB78
:105930009B7D5B3E37446693B2B8B3A89B88756481
:10594000677A8FAAB4B0AB99887D75778EB8DAF490
:10595000F1DFCFBBA799958E9DB3B8AE9992A5A75D
:105960009183746C7B8286949BA18E605669798B3F
:1059700090878B979A9089827868605546464F55F4
:105980005A645F482C22243137444C47392119305E
:105990004F667E9198AAB9B2958294A9B0A5928BD0
:1059A00085877F725B423A404E698FAFB4A37753CD
:1059B0003F40597594A3AAAFAFA18D7671757C8DC8
:1059C0009AABB6AF9B876A667A8DA9C2D9F5F0CA41
:1059D000AD9998A8A6969EA7AEA69C969896927802
:1059E0005C6D91A09B93807879737679767D868CB7
:1059F0009899908F8A7D846F53424A565D6C6F638D
:105A00004A2F26283D555A4230303537282A486ECD
:105A100093A8AA988F8E939EA9A2A19D938F8E85FD
:105A2000795B3630314B7696A5A788736047405531
:105A30006E8FA2A3A79F9A96866D697890A7B1AE44
:105A40009D9A9477586485AAC9DAD6D6D1C7AFA0F3
:105A50009DA8ACA2A09FB4BAA892847C757E8E92B9
:105A600091928C837F848078737C7F8589868F9CDC
:105A70009B958A80715742435F74786148373C42F6
:105A80003C3A39424E43362612182D46617C8697A1
:105A900098888B8F98A1A59EA29FA8AB9470513B2C
:105AA00037475E748F9FA692725C4B495D777B8E01
:105AB000A7A9A59180787D7B76829CB7B9A08C7AC6
:105AC0006B7377748EBACFD5CAC4C6C1B5A8939587
:105AD000A0ADBCC1B39A88808188918F8C8E909341
